{
  "transactions": [
    {
      "hash": "0x7bbb639952f1e302eec1350152d6c4b0e22010c98c05093399df23bde0e8ead8",
      "transactionType": "CREATE",
      "contractName": "MockUSDC",
      "contractAddress": "0x87fd4d8532c3f5bf5a391402f05814c6863f4e2a",
      "function": null,
      "arguments": null,
      "transaction": {
        "from": "0xd89091e7f5ce9f179b62604f658a5dd0e726e600",
        "gas": "0xf2b33",
        "value": "0x0",
        "input": "0x60806040523480156200001157600080fd5b50336040518060400160405280600f81526020016e55534420436f696e2028546573742960881b815250604051806040016040528060048152602001635553444360e01b81525081600390816200006991906200034d565b5060046200007882826200034d565b5050506001600160a01b038116620000ab57604051631e4fbdf760e01b8152600060048201526024015b60405180910390fd5b620000b681620000e5565b50620000df33620000ca6006600a6200052e565b620000d990620f424062000546565b62000137565b62000576565b600580546001600160a01b038381166001600160a01b0319831681179093556040519116919082907f8be0079c531659141344cd1fd0a4f28419497f9722a3daafe3b4186f6b6457e090600090a35050565b6001600160a01b038216620001635760405163ec442f0560e01b815260006004820152602401620000a2565b620001716000838362000175565b5050565b6001600160a01b038316620001a457806002600082825462000198919062000560565b90915550620002189050565b6001600160a01b03831660009081526020819052604090205481811015620001f95760405163391434e360e21b81526001600160a01b03851660048201526024810182905260448101839052606401620000a2565b6001600160a01b03841660009081526020819052604090209082900390555b6001600160a01b038216620002365760028054829003905562000255565b6001600160a01b03821660009081526020819052604090208054820190555b816001600160a01b0316836001600160a01b03167fddf252ad1be2c89b69c2b068fc378daa952ba7f163c4a11628f55a4df523b3ef836040516200029b91815260200190565b60405180910390a3505050565b634e487b7160e01b600052604160045260246000fd5b600181811c90821680620002d357607f821691505b602082108103620002f457634e487b7160e01b600052602260045260246000fd5b50919050565b601f8211156200034857600081815260208120601f850160051c81016020861015620003235750805b601f850160051c820191505b8181101562000344578281556001016200032f565b5050505b505050565b81516001600160401b03811115620003695762000369620002a8565b62000381816200037a8454620002be565b84620002fa565b602080601f831160018114620003b95760008415620003a05750858301515b600019600386901b1c1916600185901b17855562000344565b600085815260208120601f198616915b82811015620003ea57888601518255948401946001909101908401620003c9565b5085821015620004095787850151600019600388901b60f8161c191681555b5050505050600190811b01905550565b634e487b7160e01b600052601160045260246000fd5b600181815b808511156200047057816000190482111562000454576200045462000419565b808516156200046257918102915b93841c939080029062000434565b509250929050565b600082620004895750600162000528565b81620004985750600062000528565b8160018114620004b15760028114620004bc57620004dc565b600191505062000528565b60ff841115620004d057620004d062000419565b50506001821b62000528565b5060208310610133831016604e8410600b841016171562000501575081810a62000528565b6200050d83836200042f565b806000190482111562000524576200052462000419565b0290505b92915050565b60006200053f60ff84168362000478565b9392505050565b808202811582820484141762000528576200052862000419565b8082018082111562000528576200052862000419565b610a6680620005866000396000f3fe608060405234801561001057600080fd5b50600436106101005760003560e01c806370a082311161009757806395d89b411161006657806395d89b4114610214578063a9059cbb1461021c578063dd62ed3e1461022f578063f2fde38b1461026857600080fd5b806370a08231146101b5578063715018a6146101de5780637b56c2b2146101e65780638da5cb5b146101f957600080fd5b8063313ce567116100d3578063313ce5671461016b57806340c10f191461017a57806342966c681461018f57806363c07cb4146101a257600080fd5b806306fdde0314610105578063095ea7b31461012357806318160ddd1461014657806323b872dd14610158575b600080fd5b61010d61027b565b60405161011a919061080e565b60405180910390f35b610136610131366004610878565b61030d565b604051901515815260200161011a565b6002545b60405190815260200161011a565b6101366101663660046108a2565b610327565b6040516006815260200161011a565b61018d610188366004610878565b61034b565b005b61018d61019d3660046108de565b610361565b61018d6101b03660046108f7565b61036e565b61014a6101c3366004610972565b6001600160a01b031660009081526020819052604090205490565b61018d6103c9565b61018d6101f4366004610878565b610353565b6005546040516001600160a01b03909116815260200161011a565b61010d6103dd565b61013661022a366004610878565b6103ec565b61014a61023d366004610994565b6001600160a01b03918216600090815260016020908152604080832093909416825291909152205490565b61018d610276366004610972565b6103fa565b60606003805461028a906109c7565b80601f01602080910402602001604051908101604052809291908181526020018280546102b6906109c7565b80156103035780601f106102d857610100808354040283529160200191610303565b820191906000526020600020905b8154815290600101906020018083116102e657829003601f168201915b5050505050905090565b60003361031b81858561043a565b60019150505b92915050565b60003361033585828561044c565b6103408585856104c5565b506001949350505050565b610353610524565b61035d8282610551565b5050565b61036b3382610587565b50565b610376610524565b60005b828110156103c3576103b184848381811061039657610396610a01565b90506020020160208101906103ab9190610972565b83610551565b806103bb81610a2d565b915050610379565b50505050565b6103d1610524565b6103db60006105bd565b565b60606004805461028a906109c7565b60003361031b8185856104c5565b610402610524565b6001600160a01b03811661043157604051631e4fbdf760e01b8152600060048201526024015b60405180910390fd5b61036b816105bd565b610447838383600161060f565b505050565b6001600160a01b038381166000908152600160209081526040808320938616835292905220546000198110156103c357818110156104b657604051637dc7a0d960e11b81526001600160a01b03841660048201526024810182905260448101839052606401610428565b6103c38484848403600061060f565b6001600160a01b0383166104ef57604051634b637e8f60e11b815260006004820152602401610428565b6001600160a01b0382166105195760405163ec442f0560e01b815260006004820152602401610428565b6104478383836106e4565b6005546001600160a01b031633146103db5760405163118cdaa760e01b8152336004820152602401610428565b6001600160a01b03821661057b5760405163ec442f0560e01b815260006004820152602401610428565b61035d600083836106e4565b6001600160a01b0382166105b157604051634b637e8f60e11b815260006004820152602401610428565b61035d826000836106e4565b600580546001600160a01b038381166001600160a01b0319831681179093556040519116919082907f8be0079c531659141344cd1fd0a4f28419497f9722a3daafe3b4186f6b6457e090600090a35050565b6001600160a01b0384166106395760405163e602df0560e01b815260006004820152602401610428565b6001600160a01b03831661066357604051634a1406b160e11b815260006004820152602401610428565b6001600160a01b03808516600090815260016020908152604080832093871683529290522082905580156103c357826001600160a01b0316846001600160a01b03167f8c5be1e5ebec7d5bd14f71427d1e84f3dd0314c0f7b2291e5b200ac8c7c3b925846040516106d691815260200190565b60405180910390a350505050565b6001600160a01b03831661070f5780600260008282546107049190610a46565b909155506107819050565b6001600160a01b038316600090815260208190526040902054818110156107625760405163391434e360e21b81526001600160a01b03851660048201526024810182905260448101839052606401610428565b6001600160a01b03841660009081526020819052604090209082900390555b6001600160a01b03821661079d576002805482900390556107bc565b6001600160a01b03821660009081526020819052604090208054820190555b816001600160a01b0316836001600160a01b03167fddf252ad1be2c89b69c2b068fc378daa952ba7f163c4a11628f55a4df523b3ef8360405161080191815260200190565b60405180910390a3505050565b600060208083528351808285015260005b8181101561083b5785810183015185820160400152820161081f565b506000604082860101526040601f19601f8301168501019250505092915050565b80356001600160a01b038116811461087357600080fd5b919050565b6000806040838503121561088b57600080fd5b6108948361085c565b946020939093013593505050565b6000806000606084860312156108b757600080fd5b6108c08461085c565b92506108ce6020850161085c565b9150604084013590509250925092565b6000602082840312156108f057600080fd5b5035919050565b60008060006040848603121561090c57600080fd5b833567ffffffffffffffff8082111561092457600080fd5b818601915086601f83011261093857600080fd5b81358181111561094757600080fd5b8760208260051b850101111561095c57600080fd5b6020928301989097509590910135949350505050565b60006020828403121561098457600080fd5b61098d8261085c565b9392505050565b600080604083850312156109a757600080fd5b6109b08361085c565b91506109be6020840161085c565b90509250929050565b600181811c908216806109db57607f821691505b6020821081036109fb57634e487b7160e01b600052602260045260246000fd5b50919050565b634e487b7160e01b600052603260045260246000fd5b634e487b7160e01b600052601160045260246000fd5b600060018201610a3f57610a3f610a17565b5060010190565b8082018082111561032157610321610a1756fea164736f6c6343000814000a",
        "nonce": "0x44",
        "chainId": "0x3e6"
      },
      "additionalContracts": [],
      "isFixedGasLimit": false
    },
    {
      "hash": "0x5c2871d4da9703211551eb41d9c176225df2caf19a5bfdabad959297ce6c5518",
      "transactionType": "CALL",
      "contractName": "MockUSDC",
      "contractAddress": "0x87fd4d8532c3f5bf5a391402f05814c6863f4e2a",
      "function": "mint(address,uint256)",
      "arguments": [
        "0xD89091e7F5cE9f179B62604f658a5DD0E726e600",
        "10000000000"
      ],
      "transaction": {
        "from": "0xd89091e7f5ce9f179b62604f658a5dd0e726e600",
        "to": "0x87fd4d8532c3f5bf5a391402f05814c6863f4e2a",
        "gas": "0xcfe9",
        "value": "0x0",
        "input": "0x40c10f19000000000000000000000000d89091e7f5ce9f179b62604f658a5dd0e726e60000000000000000000000000000000000000000000000000000000002540be400",
        "nonce": "0x45",
        "chainId": "0x3e6"
      },
      "additionalContracts": [],
      "isFixedGasLimit": false
    },
    {
      "hash": "0x08b834800322bf77e1fc711af05426ce7aac203feeaf29837883e87eb1168795",
      "transactionType": "CALL",
      "contractName": "MockUSDC",
      "contractAddress": "0x87fd4d8532c3f5bf5a391402f05814c6863f4e2a",
      "function": "fundAddresses(address[],uint256)",
      "arguments": [
        "[0x70997970C51812dc3A010C7d01b50e0d17dc79C8, 0x3C44CdDdB6a900fa2b585dd299e03d12FA4293BC, 0x90F79bf6EB2c4f870365E785982E1f101E93b906]",
        "5000000000"
      ],
      "transaction": {
        "from": "0xd89091e7f5ce9f179b62604f658a5dd0e726e600",
        "to": "0x87fd4d8532c3f5bf5a391402f05814c6863f4e2a",
        "gas": "0x25695",
        "value": "0x0",
        "input": "0x63c07cb40000000000000000000000000000000000000000000000000000000000000040000000000000000000000000000000000000000000000000000000012a05f200000000000000000000000000000000000000000000000000000000000000000300000000000000000000000070997970c51812dc3a010c7d01b50e0d17dc79c80000000000000000000000003c44cdddb6a900fa2b585dd299e03d12fa4293bc00000000000000000000000090f79bf6eb2c4f870365e785982e1f101e93b906",
        "nonce": "0x46",
        "chainId": "0x3e6"
      },
      "additionalContracts": [],
      "isFixedGasLimit": false
    }
  ],
  "receipts": [
    {
      "status": "0x1",
      "cumulativeGasUsed": "0xbac14",
      "logs": [
        {
          "address": "0x87fd4d8532c3f5bf5a391402f05814c6863f4e2a",
          "topics": [
            "0x8be0079c531659141344cd1fd0a4f28419497f9722a3daafe3b4186f6b6457e0",
            "0x0000000000000000000000000000000000000000000000000000000000000000",
            "0x000000000000000000000000d89091e7f5ce9f179b62604f658a5dd0e726e600"
          ],
          "data": "0x",
          "blockHash": "0x631b7225f489257ee59832399fe24838a9b290d672f700610faba13e0df9dc01",
          "blockNumber": "0x1c9ee41",
          "blockTimestamp": "0x68a3ba84",
          "transactionHash": "0x7bbb639952f1e302eec1350152d6c4b0e22010c98c05093399df23bde0e8ead8",
          "transactionIndex": "0x0",
          "logIndex": "0x0",
          "removed": false
        },
        {
          "address": "0x87fd4d8532c3f5bf5a391402f05814c6863f4e2a",
          "topics": [
            "0xddf252ad1be2c89b69c2b068fc378daa952ba7f163c4a11628f55a4df523b3ef",
            "0x0000000000000000000000000000000000000000000000000000000000000000",
            "0x000000000000000000000000d89091e7f5ce9f179b62604f658a5dd0e726e600"
          ],
          "data": "0x000000000000000000000000000000000000000000000000000000e8d4a51000",
          "blockHash": "0x631b7225f489257ee59832399fe24838a9b290d672f700610faba13e0df9dc01",
          "blockNumber": "0x1c9ee41",
          "blockTimestamp": "0x68a3ba84",
          "transactionHash": "0x7bbb639952f1e302eec1350152d6c4b0e22010c98c05093399df23bde0e8ead8",
          "transactionIndex": "0x0",
          "logIndex": "0x1",
          "removed": false
        }
      ],
      "logsBloom": "0x00000000000000000000000000000000000000000000000000800000000000000002000000000000000000000000000000000000000000000000000000000000000000000000000000000008000000000001000000000000000000000000000000000000020000000000000000000800000000000000000100000010000000400000000000100000000000000000000000000000000000000000000000010000000000000000000000000000000002000200000000000000000000000000000000000002000000000000000000000000000000000000000000000000000020000000000000000000000000000000000000000000000000000000000000000000",
      "type": "0x2",
      "transactionHash": "0x7bbb639952f1e302eec1350152d6c4b0e22010c98c05093399df23bde0e8ead8",
      "transactionIndex": "0x0",
      "blockHash": "0x631b7225f489257ee59832399fe24838a9b290d672f700610faba13e0df9dc01",
      "blockNumber": "0x1c9ee41",
      "gasUsed": "0xbac14",
      "effectiveGasPrice": "0x5f5e101",
      "from": "0xd89091e7f5ce9f179b62604f658a5dd0e726e600",
      "to": null,
      "contractAddress": "0x87fd4d8532c3f5bf5a391402f05814c6863f4e2a"
    },
    {
      "status": "0x1",
      "cumulativeGasUsed": "0xc3a3e",
      "logs": [
        {
          "address": "0x87fd4d8532c3f5bf5a391402f05814c6863f4e2a",
          "topics": [
            "0xddf252ad1be2c89b69c2b068fc378daa952ba7f163c4a11628f55a4df523b3ef",
            "0x0000000000000000000000000000000000000000000000000000000000000000",
            "0x000000000000000000000000d89091e7f5ce9f179b62604f658a5dd0e726e600"
          ],
          "data": "0x00000000000000000000000000000000000000000000000000000002540be400",
          "blockHash": "0x631b7225f489257ee59832399fe24838a9b290d672f700610faba13e0df9dc01",
          "blockNumber": "0x1c9ee41",
          "blockTimestamp": "0x68a3ba84",
          "transactionHash": "0x5c2871d4da9703211551eb41d9c176225df2caf19a5bfdabad959297ce6c5518",
          "transactionIndex": "0x1",
          "logIndex": "0x2",
          "removed": false
        }
      ],
      "logsBloom": "0x00000000000000000000000000000000000000000000000000000000000000000002000000000000000000000000000000000000000000000000000000000000000000000000000000000008000000000000000000000000000000000000000000000000020000000000000000000800000000000000000100000010000000000000000000100000000000000000000000000000000000000000000000010000000000000000000000000000000002000200000000000000000000000000000000000002000000000000000000000000000000000000000000000000000020000000000000000000000000000000000000000000000000000000000000000000",
      "type": "0x2",
      "transactionHash": "0x5c2871d4da9703211551eb41d9c176225df2caf19a5bfdabad959297ce6c5518",
      "transactionIndex": "0x1",
      "blockHash": "0x631b7225f489257ee59832399fe24838a9b290d672f700610faba13e0df9dc01",
      "blockNumber": "0x1c9ee41",
      "gasUsed": "0x8e2a",
      "effectiveGasPrice": "0x5f5e101",
      "from": "0xd89091e7f5ce9f179b62604f658a5dd0e726e600",
      "to": "0x87fd4d8532c3f5bf5a391402f05814c6863f4e2a",
      "contractAddress": null
    },
    {
      "status": "0x1",
      "cumulativeGasUsed": "0xdd388",
      "logs": [
        {
          "address": "0x87fd4d8532c3f5bf5a391402f05814c6863f4e2a",
          "topics": [
            "0xddf252ad1be2c89b69c2b068fc378daa952ba7f163c4a11628f55a4df523b3ef",
            "0x0000000000000000000000000000000000000000000000000000000000000000",
            "0x00000000000000000000000070997970c51812dc3a010c7d01b50e0d17dc79c8"
          ],
          "data": "0x000000000000000000000000000000000000000000000000000000012a05f200",
          "blockHash": "0x631b7225f489257ee59832399fe24838a9b290d672f700610faba13e0df9dc01",
          "blockNumber": "0x1c9ee41",
          "blockTimestamp": "0x68a3ba84",
          "transactionHash": "0x08b834800322bf77e1fc711af05426ce7aac203feeaf29837883e87eb1168795",
          "transactionIndex": "0x2",
          "logIndex": "0x3",
          "removed": false
        },
        {
          "address": "0x87fd4d8532c3f5bf5a391402f05814c6863f4e2a",
          "topics": [
            "0xddf252ad1be2c89b69c2b068fc378daa952ba7f163c4a11628f55a4df523b3ef",
            "0x0000000000000000000000000000000000000000000000000000000000000000",
            "0x0000000000000000000000003c44cdddb6a900fa2b585dd299e03d12fa4293bc"
          ],
          "data": "0x000000000000000000000000000000000000000000000000000000012a05f200",
          "blockHash": "0x631b7225f489257ee59832399fe24838a9b290d672f700610faba13e0df9dc01",
          "blockNumber": "0x1c9ee41",
          "blockTimestamp": "0x68a3ba84",
          "transactionHash": "0x08b834800322bf77e1fc711af05426ce7aac203feeaf29837883e87eb1168795",
          "transactionIndex": "0x2",
          "logIndex": "0x4",
          "removed": false
        },
        {
          "address": "0x87fd4d8532c3f5bf5a391402f05814c6863f4e2a",
          "topics": [
            "0xddf252ad1be2c89b69c2b068fc378daa952ba7f163c4a11628f55a4df523b3ef",
            "0x0000000000000000000000000000000000000000000000000000000000000000",
            "0x00000000000000000000000090f79bf6eb2c4f870365e785982e1f101e93b906"
          ],
          "data": "0x000000000000000000000000000000000000000000000000000000012a05f200",
          "blockHash": "0x631b7225f489257ee59832399fe24838a9b290d672f700610faba13e0df9dc01",
          "blockNumber": "0x1c9ee41",
          "blockTimestamp": "0x68a3ba84",
          "transactionHash": "0x08b834800322bf77e1fc711af05426ce7aac203feeaf29837883e87eb1168795",
          "transactionIndex": "0x2",
          "logIndex": "0x5",
          "removed": false
        }
      ],
      "logsBloom": "0x00000000000000000002000000000000000000000000000000000000000000000002000000000000000000000000000000000000000000000000000000100000000000000000000000000008000000000000000000000000000000000000000000000800020000000000000000000800000800000000000100000010000000000000000000000000000000000000000000000000000000000400000000000000000000000000200000000000000002000000000000000000000000000000000000000002000000000000000000000000400000000000000000000000000020000000000000000000000010000000000001000000000000000000000000000000",
      "type": "0x2",
      "transactionHash": "0x08b834800322bf77e1fc711af05426ce7aac203feeaf29837883e87eb1168795",
      "transactionIndex": "0x2",
      "blockHash": "0x631b7225f489257ee59832399fe24838a9b290d672f700610faba13e0df9dc01",
      "blockNumber": "0x1c9ee41",
      "gasUsed": "0x1994a",
      "effectiveGasPrice": "0x5f5e101",
      "from": "0xd89091e7f5ce9f179b62604f658a5dd0e726e600",
      "to": "0x87fd4d8532c3f5bf5a391402f05814c6863f4e2a",
      "contractAddress": null
    }
  ],
  "libraries": [],
  "pending": [],
  "returns": {},
  "timestamp": 1755560581633,
  "chain": 998,
  "commit": null
}